:0400000032EF00F0EB
:100008004D82FACF05F0FBCF06F00E01C2AB0FEF21
:1000180000F011EF00F01CEF00F0CAAB16EF00F093
:1000280018EF00F01CEF00F0E8EC0EF02CEF00F0F9
:10003800C2A921EF00F023EF00F02CEF00F0CAA9CD
:1000480028EF00F02AEF00F02CEF00F0BFEC0EF0E4
:1000580006C0FBFF05C0FAFF4D921100818E35EFF7
:0600680000F0CAEF0EF0EB
:100F00000001000A006400E8031027232564002A7A
:100F1000256400001850800B256E185018242C6E84
:100F200017AE95EF07F097EF07F098EF07F02C80DA
:100F30002C50D8B49EEF07F0A0EF07F0B5EF07F004
:100F40002C28D8A4A6EF07F0A8EF07F0B0EF07F021
:100F5000000E156E000E166E000E176E000E186E47
:100F6000178E000E186EBDEF07F0000E156E000E06
:100F7000166E000E176E000E186E1C50800B251A90
:100F80001C501C242D6E1BAEC8EF07F0CAEF07F0F3
:100F9000CBEF07F02D802D50D8B4D1EF07F0D3EF71
:100FA00007F0E8EF07F02D28D8A4D9EF07F0DBEF22
:100FB00007F0E3EF07F0000E196E000E1A6E000E38
:100FC0001B6E000E1C6E1B8E000E1C6EF0EF07F0E9
:100FD000000E196E000E1A6E000E1B6E000E1C6EB7
:100FE00019501A101B101C10D8A4F9EF07F0FBEFD2
:100FF00007F013EF08F0000E156E000E166E000ECF
:10100000176E000E186E800E17127F0E18122550E4
:10101000181215C015F016C016F017C017F018C03A
:1010200018F056EF09F02C50D8A419EF08F01BEF78
:1010300008F025EF08F0000E156E000E166E000E7B
:10104000176E000E186E56EF09F02D502CC01DF0D3
:101050001E6A1D5E000E1E5A7F0E1D24266E000E97
:101060001E20276E15C021F016C022F017C023F0F5
:1010700018C024F0000E156E000E166E000E176ECE
:10108000000E186E000E286E000E296E000E2A6EDD
:10109000000E2B6E000E2D6E86EF08F02D50D8B48A
:1010A00054EF08F056EF08F06DEF08F0D8902136B5
:1010B000223623362436D89015361636173618368B
:1010C0002BAE65EF08F067EF08F068EF08F01580C9
:1010D000D890283629362A362B361950215C1A50DA
:1010E00022581B5023581C502458D8A07AEF08F0DF
:1010F0007CEF08F085EF08F02B8C1950215E1A5018
:10110000225A1B50235A1C50245A2D2A190E2D6482
:101110008CEF08F08EEF08F04EEF08F0215022100F
:1011200023102410D8B497EF08F099EF08F0B1EF2E
:1011300008F02880B1EF08F0D8901536163617362B
:1011400018362BAEA6EF08F0A8EF08F0A9EF08F0CC
:101150001580D890283629362A362B362606D8A070
:10116000270617AEB6EF08F0B8EF08F09CEF08F0CE
:10117000000E2D6E2BAEBFEF08F0C1EF08F0E5EFCB
:1011800008F0FF0E28141D6EFF0E29141E6EFF0EB0
:101190002A141F6E7F0E2B14206E1D501E101F1060
:1011A0002010D8B4D6EF08F0D8EF08F0DCEF08F044
:1011B000010E2D6EE5EF08F015A0E1EF08F0E3EF6A
:1011C00008F0E5EF08F0D8EF08F02D50D8B4EBEFB9
:1011D00008F0EDEF08F011EF09F0010E1526000EF2
:1011E00016221722182218A0F8EF08F0FAEF08F0DC
:1011F00011EF09F015C01DF016C01EF017C01FF04A
:1012000018C020F0203420321F321E321D321DC083
:1012100015F01EC016F01FC017F020C018F0264AA7
:10122000272A27BE1CEF09F0275008E12628D8A05E
:101230001CEF09F01EEF09F029EF09F0000E276EF0
:101240002668000E156E000E166E000E176E000E4C
:10125000186E27BE36EF09F0275006E12604D8B0F5
:1012600034EF09F036EF09F044EF09F0000E276E75
:10127000000E266E000E156E000E166E000E176E16
:10128000000E186E000E256E26C02CF02CA04BEF21
:1012900009F04DEF09F050EF09F0178E51EF09F00A
:1012A000179ED8902C30186E07EF08F012000F6EC2
:1012B0000F50D8B45EEF09F060EF09F082EF09F04B
:1012C0000ABE67EF09F065EF09F082EF09F007C089
:1012D0000BF008C00CF009C00DF00AC00EF00B1E98
:1012E0000C1E0D1E0E1E0B2A000E0C220D220E22AD
:1012F0000BC011F00CC012F00DC013F00EC014F0B2
:101300008AEF09F007C011F008C012F009C013F00D
:101310000AC014F00750081009100A10D8A493EF5F
:1013200009F095EF09F09FEF09F0000E076E000E2F
:10133000086E000E096E000E0A6E30EF0AF0960E6F
:10134000106EA9EF09F0102AD8901432133212321D
:101350001132000E11140B6E000E12140C6E000EE2
:1013600013140D6EFE0E14140E6E0B500C100D1097
:101370000E10D8A4BEEF09F0C0EF09F0A3EF09F0FA
:10138000CEEF09F0102A010E1126000E12221322B0
:101390001422D8901432133212321132000E11146A
:1013A0000B6E000E12140C6E000E13140D6EFF0E59
:1013B00014140E6E0B500C100D100E10D8A4E3EF89
:1013C00009F0E5EF09F0C2EF09F0EDEF09F01006C2
:1013D000D890113612361336143613BEF2EF09F0D8
:1013E000F4EF09F0FCEF09F0020E1060FAEF09F0DB
:1013F000FCEF09F0E7EF09F010B001EF0AF003EF9E
:101400000AF004EF0AF0139ED890103210C00BF0CF
:101410000C6A0D6A0E6A0BC00EF00D6A0C6A0B6A3C
:101420000B5011120C5012120D5013120E501412B8
:101430000F50D8B41EEF0AF020EF0AF028EF0AF0A0
:101440000ABE27EF0AF025EF0AF028EF0AF0148E03
:1014500011C007F012C008F013C009F014C00AF060
:101460001200150E186E000E196EE1EF0AF0250E2F
:101470001E18D8B43EEF0AF040EF0AF045EF0AF02C
:101480001E5016EC0FF0E1EF0AF0000E1A6E13C0BA
:10149000F6FF14C0F7FF134A142AF86A0800F5CFC4
:1014A0001EF01E50000AD8B4F3EF0AF0640AD8B454
:1014B00060EF0AF00D0AD8B460EF0AF0E1EF0AF02D
:1014C00018C0D9FF19C0DAFFDECF1CF0DDCF1DF048
:1014D000020E1826000E19221DBE73EF0AF071EFDE
:1014E0000AF079EF0AF0030E1A121C6C1D1ED8B018
:1014F0001D2A010E1E6E1E50020D010EF324F66E03
:101500000F0EF420F76EF86A000EF8220900F5506D
:101510001C5C0900F5501D58D8B091EF0AF093EF0C
:101520000AF095EF0AF09FEF0AF01E2A050E1E182A
:10153000D8A49DEF0AF09FEF0AF07BEF0AF01AC0E3
:1015400017F0030E1716D8B4A8EF0AF0AAEF0AF0A6
:10155000ADEF0AF02D0E16EC0FF01EC01BF0D8EF09
:101560000AF01B50020D010EF324F66E0F0EF4204C
:10157000F76EF86A000EF8220900F5CF09F00A00AC
:10158000F5CF0AF01CC007F01DC008F07CEC0CF091
:1015900007C00EF008C00FF0000E116E0A0E106E9C
:1015A000B6EC0CF00E50300F1E6E1E5016EC0FF005
:1015B0001B061B28D8A4DFEF0AF0E1EF0AF0B1EF19
:1015C0000AF013C0F6FF14C0F7FF134A142AF86A92
:1015D0000800F5CF1EF01E50D8A4F1EF0AF0F3EF8B
:1015E0000AF037EF0AF0120030343134376E3750DA
:1015F000D8A4FDEF0AF0FFEF0AF009EF0BF0000EA0
:101600002E6E000E2F6E000E306E000E316E76EFD5
:101610000BF02EC032F02FC033F030C034F031C0A8
:1016200035F0200E19EF0BF0D890353234323332CA
:101630003232E82E14EF0BF03250366E308EFF0E41
:101640002E16FF0E2F16FF0E3016000E3116960EB8
:10165000375E37BE30EF0BF02EEF0BF046EF0BF09E
:101660003750800A970FD8B038EF0BF03AEF0BF0F5
:101670003CEF0BF0FFEF0AF0D890313230322F32CE
:101680002E32373E3CEF0BF05EEF0BF01F0E37644F
:101690004CEF0BF04EEF0BF056EF0BF0FFEF0AF0B4
:1016A000D8902E362F363036313637063750D8A4FC
:1016B0005CEF0BF05EEF0BF050EF0BF03650D8B450
:1016C00064EF0BF066EF0BF06EEF0BF0311E301E87
:1016D0002F1E2E6C000E2F22302231222EC02EF013
:1016E0002FC02FF030C030F031C031F0120020ECAC
:1016F0000FF0010EF7EC0EF0000E086E950E076E5F
:1017000010EC0EF0D4EC0EF00009D8B48AEF0BF018
:101710008CEF0BF082EF0BF0DEEC0EF007C038F030
:1017200008C039F0140E196EAE0E1A6EA30E1B6EA1
:10173000410E1C6E38C007F039C008F0000E08BE1C
:10174000FF0E096E0A6E010E57EC09F007C015F086
:1017500008C016F009C017F00AC018F08AEC07F0AC
:1017600015C02EF016C02FF017C030F018C031F0A1
:10177000F4EC0AF02EC04AF02FC04BF00B0E136EA3
:101780000F0E146E4AC015F04BC016F031EC0AF083
:1017900012004BBED5EF0BF04B5009E1100E4A5C26
:1017A000D8A0D5EF0BF0D7EF0BF0E8EF0BF04BBE66
:1017B000E5EF0BF04B5007E11E0E4A5CD8B0E3EFAB
:1017C0000BF0E5EF0BF0E8EF0BF0838004EF0CF08B
:1017D00083904BBEF5EF0BF04B5009E11E0E4A5CB7
:1017E000D8A0F5EF0BF0F7EF0BF004EF0CF08586C7
:1017F000060E0A6E130E096EAE0EE82EFED7092EE7
:10180000FCD70A2EFAD7859612004BBE11EF0CF0CA
:101810004B5009E1100E4A5CD8A011EF0CF013EF09
:101820000CF024EF0CF04BBE21EF0CF04B5007E115
:101830001E0E4A5CD8B01FEF0CF021EF0CF024EF25
:101840000CF0838040EF0CF083904BBE31EF0CF036
:101850004B5009E11E0E4A5CD8A031EF0CF033EF7B
:101860000CF040EF0CF08586060E046E130E036E2E
:10187000AE0EE82EFED7032EFCD7042EFAD785969F
:101880001200000E836E000E846E000E856EFE0E3A
:10189000886EDF0E896EB30E8A6E630E0F01216FA4
:1018A000CF0E196FFE0E116F000E2D6F100E186FF8
:1018B000000E106F000E206F000E0F6F000E176FDE
:1018C000000E1F6F0E6916691E690D6915691D6985
:1018D000080E2A6F1299138914894E0E076E1E0E78
:1018E000086E02EC0FF00E01C289170EB56F050EDF
:1018F000F46F090EFD6F1200000E0C6E000E0B6EE1
:1019000009500A10D8B487EF0CF089EF0CF0B1EF52
:101910000CF0010E0D6E91EF0CF0D89009360A36DE
:101920000D2A0AAE96EF0CF098EF0CF08DEF0CF04C
:10193000D8900B360C360950075C0A500858D8A0CE
:10194000A4EF0CF0A6EF0CF0ABEF0CF00950075E23
:101950000A50085A0B80D8900A3209320D2E98EF9F
:101960000CF00BC007F00CC008F012001050111062
:10197000D8B4BDEF0CF0BFEF0CF0E3EF0CF0010EAC
:10198000126EC7EF0CF0D89010361136122A11AE35
:10199000CCEF0CF0CEEF0CF0C3EF0CF010500E5C5F
:1019A00011500F58D8A0D7EF0CF0D9EF0CF0DDEFA5
:1019B0000CF010500E5E11500F5AD89011321032A8
:1019C000122ECEEF0CF00EC00EF00FC00FF0120072
:1019D00049BEF4EF0CF0F50E485C010E4958D8A052
:1019E000F4EF0CF0F6EF0CF0F9EF0CF08584FAEF61
:1019F0000CF0859449BE08EF0DF0F40E485C010E22
:101A00004958D8B006EF0DF008EF0DF015EF0DF0C6
:101A10008584060E0A6E130E096EAE0EE82EFED7F2
:101A2000092EFCD70A2EFAD78594120049BE22EF60
:101A30000DF0F50E485C010E4958D8A022EF0DF0CC
:101A400024EF0DF027EF0DF0858428EF0DF085943D
:101A500049BE36EF0DF0F40E485C010E4958D8B07F
:101A600034EF0DF036EF0DF043EF0DF08584060EE8
:101A7000046E130E036EAE0EE82EFED7032EFCD7B7
:101A8000042EFAD78594120027EC0EF070EC0DF0BE
:101A9000360E076E1E0E086EFDEC0EF0F28EF28C06
:101AA000C9EC0BF0E8EC0CF077EC0BF098EC0DF0D7
:101AB00062EF0DF054EC0EF03A6E3A043B6E3B5080
:101AC00092EC0EF0B4EC0EF00009D8A46AEF0DF021
:101AD0006CEF0DF05AEF0DF050EF0DF035EF00F018
:101AE000000E6A6E000E6B6E000E6C6E000E6D6E58
:101AF000000E686E000E696E000E666E000E0F011D
:101B00005F6F000E5D6F000E5E6F000E596F000E6E
:101B10005A6F000E5B6F000E656E000E586F000E60
:101B2000566F0F0E576F840E606E010E5C6F1200C1
:101B300020EC0FF0150EF7EC0EF0D4EC0EF00009CF
:101B4000D8B4A5EF0DF0A7EF0DF09DEF0DF0DEEC92
:101B50000EF007C01FF008C020F01FC048F020C0E2
:101B600049F00F0E136E0F0E146E48C015F049C0E9
:101B700016F031EC0AF01200080E9F6E900E9D6E6A
:101B8000240E9E6ECF0E9B6E000E9C6E000E076E96
:101B9000000E086E0CEC0FF0000E076E000E086EC3
:101BA00007EC0FF0000E076E000E086E11EC0FF040
:101BB000000E4C6E1200780ED66E0B0ED46EDC0E3C
:101BC000D36ED350D4CF09F00A6A09C00AF0096A6B
:101BD0000910446E0A50456E0E01CA9BC28B4C0E12
:101BE000076E1E0E086EFDEC0EF0900ED56E120004
:101BF00046504710D8B4FFEF0DF001EF0EF00DEF97
:101C00000EF002D80DEF0EF00500FA6E4650FD6E94
:101C10004750FE6EFF6AFA5012000F01129912002F
:101C2000FF0E0716030E0816ACA819EF0EF01BEFF7
:101C30000EF022EF0EF0060ED89007360836E82E8A
:101C40001CEF0EF00850AB6E07C0AAFF120024EC88
:101C50000FF078EC0EF041EC0CF086EC0EF0A9ECF5
:101C60000EF09EEC0EF070EC0DF0F1EC0EF069EC65
:101C70000EF0DBEC0DF0BCEC0DF012004250431006
:101C8000D8B445EF0EF047EF0EF053EF0EF002D848
:101C900053EF0EF00500FA6E4250FD6E4350FE6E9B
:101CA000FF6AFA50120012000E01CDAB5AEF0EF08F
:101CB0005CEF0EF054EF0EF0000E4C6E9DA263EF41
:101CC0000EF065EF0EF067EF0EF09D989D8899502D
:101CD0001200010EBF6E000EBE6E000EC06EF90E39
:101CE000BC6E000EBB6E0E01CE93D00EBD6E120008
:101CF000000E0E01E16F000EE26F000EE36F000EAA
:101D0000E46F000EE56F000EE66F1200610E0E012B
:101D1000D86F000EDA6F000EDC6F050EDE6F000E5E
:101D2000DD6F1200076E0E01CDA999EF0EF09BEF4B
:101D30000EF093EF0EF007C09AFF12008C0EA86E03
:101D4000000EA76E950EA66EAE50F30B0409AE6E94
:101D500012008C0EAC6E000EAB6E950EAA6EAE50DD
:101D6000FC0B0109AE6E12000E01CDBBBAEF0EF0F6
:101D7000BDEF0EF0010EBEEF0EF0000E12000F01CF
:101D800012A9C5EF0EF0C7EF0EF0C9EF0EF0F8EC98
:101D90000DF012004C6A4B6A4A6A496A486A4D90D3
:101DA0004D92000144EF0DF060A0D9EF0EF0DCEF92
:101DB0000EF0010EDDEF0EF0000E120064500A6E00
:101DC000096A63500924076E000E0A20086E12008B
:101DD0000E01CA9B4550D46E44C0D3FF3EEC0EF0BA
:101DE0001200A00E0F01336F080E346F1200076E41
:101DF00007C05FFF608E6080120007C042F008C01D
:101E000043F0120007C046F008C047F0120007C0B8
:101E10003EF008C03FF0120007C040F008C041F09B
:101E2000120007C03CF008C03DF01200086E0850D8
:101E300092EC0EF0120005EC0CF016EC0DF0120016
:101E40003C0E0F015F6F1200F29A12001200120096
:020000040020DA
:10000000FF0FFF0FFF0FFF0FFF0FFF0FFF0FFF0F80
:020000040030CA
:0C000000ECFFFFFF9FFFFFFFFFFFFFFF73
:00000001FF
